:020000040800F2
:1000000050220120E1020008B7700008E3660008F2
:10001000B3700008BF0A0008B389000800000000A0
:10002000000000000000000000000000837E0008C7
:10003000F91400080000000093740008857E000891
:10004000FB020008FB020008FB020008FB0200089C
:10005000FB020008FB020008FB020008FB0200088C
:10006000FB020008FB020008FB020008FB0200087C
:10007000FB020008FB020008FB020008FB0200086C
:10008000FB020008FB020008FB020008FB0200085C
:10009000FB020008FB020008FB020008FB0200084C
:1000A000FB020008FB020008FB020008FB0200083C
:1000B000FB020008FB020008FB020008FB0200082C
:1000C000FB020008FB020008FB020008FB0200081C
:1000D000FB020008FB020008FB020008FB0200080C
:1000E000FB020008FB02000800000000FB02000801
:1000F000FB020008FB020008FB020008FB020008EC
:10010000FB020008FB020008FB020008FB020008DB
:10011000FB020008FB020008FB020008FB020008CB
:10012000FB020008FB020008FB020008FB020008BB
:10013000FB020008FB020008FB020008FB020008AB
:1001400000000000000000000000000000000000AF
:10015000FB020008FB020008910E0008FB020008E9
:10016000FB020008FB020008FB020008FB0200087B
:10017000FB020008FB020008810E000800000000DE
:10018000FB020008FB020008FB020008FB0200085B
:10019000FB020008FB020008FB020008FB0200084B
:1001A000FB020008FB020008FB0200080000000040
:1001B000FB020008FB020008FB020008FB0200082B
:1001C000FB020008FB020008000000000000000025
:1001D0000000000000000000FB020008000000001A
:1001E000000000000000000000000000000000000F
:1001F0000000000000000000FB020008FB020008F5
:10020000FB020008FB02000800000000FB020008DF
:10021000FB020008FB020008FB020008FB020008CA
:10022000FB02000800000000FB02000800000000C4
:10023000FB020008FB02000800000000FB020008AF
:10024000FB020008FB020008FB020008FB0200089A
:10025000FB020008FB020008FB020008FB0200088A
:10026000FB020008FB020008FB020008FB0200087A
:10027000FB020008FB020008FB020008000000006F
:10028000FB020008FB020008FB020008FB0200085A
:1002900000000000FB020008FB0200080000000054
:1002A00000000000FB020008FB020008FB0200083F
:1002B000FB020008FB020008FB020008FB0200082A
:1002C000FB020008FB020008FB020008DFF80CD06C
:1002D00000F012FB00480047CDE900085022012041
:1002E0000648804706480047FEE7FEE7FEE7FEE7D0
:1002F000FEE7FEE7FEE7FEE7FEE7FEE7617F0008B8
:10030000CD0200082DE9F05F0546002092469B468D
:1003100088460646814640241BE02846414647461B
:10032000224600F0CFF853465A46C01A914110D3E6
:1003300011461846224600F0B6F82D1A67EB010860
:100340004F4622460120002100F0ADF817EB0009CE
:100350004E41201EA4F10104DFDC484631462A4606
:100360004346BDE8F09F2DE9F0410024061B2546D9
:1003700071F1000605DA01240027D0EB070067EBD6
:100380000101161E73F1000605DA0027D2EB070201
:10039000012567EB0303FFF7B5FF86460E461746B8
:1003A0009C46AC4204D00025D0EB050E65EB01065F
:1003B00024B10020D2EB000760EB030C70463146FD
:1003C0003A466346BDE8F08140EA01039B0703D04B
:1003D00009E008C9121F08C0042AFAD203E011F884
:1003E000013B00F8013B521EF9D27047D2B201E046
:1003F00000F8012B491EFBD270470022F6E710B52A
:1004000013460A4604461946FFF7F0FF204610BD82
:10041000421C10F8011B0029FBD1801A704730B52F
:1004200004460020034600E05B1C934203D2E05CDC
:10043000CD5C401BF8D030BD10B500F0004420F07A
:100440000040C20DC0F3160040F400007F2A02DA1B
:100450000020014610BD0021962A03DCC2F196025D
:10046000D04002E0963A00F01EF8002CF2D00023B3
:10047000D0EB030063EB010110BD30B50B46014624
:1004800000202022012409E021FA02F59D4205D333
:1004900003FA02F5491B04FA02F52844151EA2F1DD
:1004A0000102F1DC30BD202A04DB203A00FA02F11F
:1004B000002070479140C2F1200320FA03F3194352
:1004C00090407047202A04DB203A21FA02F00021F4
:1004D000704721FA02F3D040C2F120029140084354
:1004E0001946704710B541000CD0C0F3C75196298A
:1004F00008DC7E2909DC06DB410204D000F0004064
:1005000040F07E5010BD002010BDC1F19604C4F132
:10051000200100FA01F1E04000F012FAA04010BD05
:100520002DE9FE4F804681EA0300C00F0C46009083
:1005300021F0004123F00045B8EB0200A94105D2AB
:100540004046214690461C460B46024623F000409A
:10055000104347D0270DC7F30A00C3F30A51029096
:10056000401A019040286BDAC3F3130040F4801B5B
:100570000098924620B10023D2EB030A63EB0B0BE9
:1005800001985946C0F140025046FFF78CFF0646DD
:100590000D4650465946019A00F0C0F910EB08008C
:1005A0006141002487EA115284EAE7731A4340D07C
:1005B000009A62B3019A012A4FEA075215DC001B28
:1005C00061EB02014FF0004202EA0752CDE900421E
:1005D000001C41F5801132462B4600F0F7F903B0BC
:1005E000BDE8F08F40462146F9E7001B61EB0201B0
:1005F000001C41F5801300185B412018A2F500177C
:1006000047EB030140EAD570B6196D4111E06D0862
:100610004FEA360645EAC0754FEA0752001B61EB08
:100620000201001C41F5801149084FEA3000001911
:10063000514132462B4603B0BDE8F04F00F0B7B948
:100640000098012240000023D0EB020263EBE0732C
:10065000009821464FEAE074B8EB000061EB04011A
:10066000E9E783F000435BE781F0004158E72DE9BB
:10067000FE4F81EA030404F0004421F0004100949D
:100680004FF0000B23F0004350EA01045ED052EA21
:1006900003045BD0C3F30A54C1F30A552C44A4F2FB
:1006A000F3340194A0FB0254C1F3130141F480110F
:1006B000C3F3130343F4801301FB024400FB034E16
:1006C000840A970A44EA815447EA8357A4FB0768DF
:1006D00002958D0A05FB07854FEA932C04FB0C5409
:1006E0002705029D4FEA065847EA1637B5EB08057D
:1006F0006EEB070C870E920E47EA811742EA8312CF
:10070000A7FB0201B6EB0B0164EB00042B0D43EADF
:100710000C335E1844EB1C50DA465146E7FB0201ED
:10072000C5F313044FEA0B3343EA14534FEA043280
:10073000019C43EA0603A4F10C040294009CCDE959
:1007400000B400F043F903B0BDE8F08F002001468B
:10075000F9E72DE9F04D81EA030404F0004B21F0A4
:10076000004514464FF0000A23F0004150EA05020C
:1007700020D054EA01021DD0C5F30A570246C5F342
:100780001303C1F31300C1F30A5640F4801543F478
:100790008013A7EB0608101BD64608F2FD3873EB52
:1007A000050002D308F1010801E092185B41B8F19D
:1007B000000F03DA00200146BDE8F08D00204FF461
:1007C0008011064684460EE0171B73EB050705D320
:1007D000121B63EB050306434CEA010C49084FEA80
:1007E000300092185B4150EA0107EDD152EA030054
:1007F00012D082EA040083EA0501084305D0101BE9
:10080000AB4106D20122002306E000224FF0004354
:1008100002E06FF0010253101AEB06004CEB085196
:1008200010EB0A0041EB0B01BDE8F04D00F0BFB842
:10083000C1F30A52C1F3130140F2FF3341F48011B6
:100840009A4202DA00200146704740F233439A424E
:10085000A2F2334202DC5242FFF734BEFFF723BE5E
:1008600070B500F0004420F00040C20DC0F3160047
:10087000002140F400007F2A09DA7D2A00DA7D2277
:10088000563AFFF710FE02460B4600200BE0962A70
:100890000DDCC2F1960320FA03F5563AFFF703FE8A
:1008A00002460B462846002100F081F802E0963A05
:1008B000FFF7F9FD002C04D00023D0EB030063EB1D
:1008C000010170BD30B5041E71F1000404DB4FF06E
:1008D0000044404264EB0101141E73F1000405DB87
:1008E0001C464FF00043524263EB0403994208BF99
:1008F000904230BD00207047064C074D06E0E0688E
:1009000040F0010394E8070098471034AC42F6D356
:10091000FFF7E0FCB4E80808E4E80808202A06DB52
:10092000CB17203A41FA02F043EAE07306E041FABD
:1009300002F3D040C2F120029140084319467047AB
:100940000029A8BF7047401C490008BF20F00100E3
:10095000704710B4B0FA80FC00FA0CF050EA0104C1
:1009600004BF10BC704749B1CCF1200421FA04F453
:1009700011FA0CF118BF012121430843A3EB0C012C
:10098000CB1D4FEA00614FEA102042BF002010BC8F
:10099000704700EBC35010440029A4BF10BC70473F
:1009A000401C490008BF20F0010010BC704710B582
:1009B000141E73F1000408DA401C41F10001921882
:1009C0005B411A4301D120F0010010BD2DE9F04D2B
:1009D00092469B4611B1B1FA81F202E0B0FA80F280
:1009E00020329046FFF75FFD04460F4640EA0A00BA
:1009F00041EA0B0153465A46084313D0114653EAC5
:100A0000010019D0C8F140025046FFF75BFD0546D2
:100A10000E46504659464246FFF745FD084305D06D
:100A2000012004E020463946BDE8F08D0020054352
:100A300046EAE0762C4337430A986305E40AA0EBC4
:100A400008000022FD0A44EA47540A3002D500207B
:100A50000146E9E7010510196941DDE9084500197A
:100A60006941BDE8F04DA2E770B58C1810F8015B44
:100A700015F0070301D110F8013B2A1106D110F837
:100A8000012B03E010F8016B01F8016B5B1EF9D13B
:100A90002B0705D40023521E0DD401F8013BFAE7C1
:100AA00010F8013BCB1A921C03E013F8015B01F82C
:100AB000015B521EF9D5A142D8D3002070BD00BF02
:100AC000FEE700002DE9F041002408F082FC05005B
:100AD00013D03648006840F25146721C0021C0F322
:100AE0000A000123A0F58067493F04D0B04207D136
:100AF00041F0010108E0194606E02046BDE8F0811A
:100B0000904201D1012000E00020014328494FF02C
:100B1000180008D088608868182843D18B608868DE
:100B20000028FCD13DE0234E4FF00A47224AD6F878
:100B300000C0B7EB4C5F08D110601068182831D1A5
:100B4000136010680028FCD12BE0D6F800C0CCF36D
:100B50000A0CACF58067833F0AD037684FF010422B
:100B6000B2EB475F12D188608868182809D019E075
:100B700010601068182815D1136010680028FCD187
:100B80000FE08B6088680028FCD10AE032685205CB
:100B900008D188608868182804D18B60886800288C
:100BA000FCD10124284608F087FCA6E7002004E0D9
:100BB000003002400010005C084C02582DE9F04162
:100BC00008F007FC35490B6840F251456C1C0021C8
:100BD000C3F30A030122A3F58066493E04D0AB4269
:100BE00004D141F0010105E0114603E0A34201D127
:100BF000012300E000232A4D2A4E19432A4908D038
:100C00008A608A68002AFCD10D600968B14241D02F
:100C1000FEE7264C4FF00A4C254BD4F800E0244F59
:100C20000837BCEB4E5F08D13A6039680029FCD127
:100C30001D601968B1422DD0FEE7D4F800E0CEF374
:100C40000A0EAEF5806CBCF1830C0ED027684FF015
:100C50001043B3EB475F11D18A608A68002AFCD148
:100C60000D600968B14215D0FEE73A603968002985
:100C7000FCD11D601968B1420CD0FEE723685B050A
:100C800008D18A608A68002AFCD10D600968B142E7
:100C900000D0FEE708F010FCBDE8F081002004E081
:100CA000C2A507F4CDB5E8B5003002400010005CE5
:100CB000004C025870B52DED028B9FED110AB0EE7D
:100CC000408A00240AF0C8FB20B1012803D0022882
:100CD00010D10EE00FE00AF08FFC05460AF01EFC72
:100CE000F0EE408A2146F0EE480A284606F0D2FB94
:100CF00001E000E000BF00BFBDEC028B70BD000052
:100D000000007F4370B50546AC6BA06C406D0228B7
:100D100006D0012084F83500E06C40F04000E0642B
:100D2000204600F0BBFD70BD70B50646B46BA06BED
:100D300068B3A06C0068006800F40025A06B00F0A8
:100D4000010078B975B1A06C0068C568E26B082332
:100D500003FB02510022A06C00F0DAFFA06B401EE2
:100D6000A0632FE0A06C0068006800F4002048BB7E
:100D7000A06C00680569E26B082303FB02510122A5
:100D8000A06C00F0C5FFA06B401EA0631AE0A06C31
:100D90000068006800F4002020B1D4E9110109685E
:100DA000C8600FE0A06C0068006800F4002048B93B
:100DB000656CE06B042101FB0050A16C09680861BF
:100DC000206CA063A06B216C88420ED12068C068A3
:100DD00040F001002168C8602068006800F002004F
:100DE000022802D1012084F8350070BD10B506F04C
:100DF00027FD05F0A9FF06F00BFA06F087FA06F0CA
:100E000076FA044645F24060844219D1214610A08A
:100E100007F09CFE06F0B6F9002006F0BFFA4FF48A
:100E2000A5714FF4DC7006F091FA4FF4A5734FF4FE
:100E3000DC724FF4A071F02006F0BAF9002010BD6A
:100E4000214608A007F082FE4FF0FF30F7E70000D0
:100E50004F5635363430204F4B2C49443A307825A4
:100E6000580D0A004F5635363430204552524F52F5
:100E70002121212121202049443A25580D0A000032
:100E800010B5024800F032FD10BD0000D84F002020
:100E900010B5024801F00CFC10BD000028500020E5
:100EA0000146374A0868904249D0354A18320868E6
:100EB000904244D0324A3032086890423FD0304AA3
:100EC0004832086890423AD02D4A60320868904211
:100ED00035D02B4A78320868904230D0284A903278
:100EE000086890422BD0264AA8320868904226D043
:100EF000244A0868904222D0224A18320868904258
:100F00001DD0204A30320868904218D01D4A48321D
:100F10000868904213D01B4A6032086890420ED095
:100F2000184A78320868904209D0164A9032086808
:100F3000904204D0134AA8320868904201D101209F
:100F400000E00020B0B10A78103A1823B2FBF3F0A9
:100F500000F007020C4B9A5CCA65032805D90A68A1
:100F60006FF30902121D8A6503E00A686FF3090234
:100F70008A6503E0086820F0FF008865886D704787
:100F80001000024010040240AFA2010810B5026830
:100F90002B4C0368A34222D0294C14340368A3428B
:100FA0001DD0274C28340368A34218D0244C3C346D
:100FB0000368A34213D0224C50340368A3420ED0DE
:100FC0001F4C64340368A34209D01D4C7834036875
:100FD000A34204D01A4C8C340368A34201D10123EC
:100FE00000E000238BB10378083B1424B3FBF4F139
:100FF000144B03EB81030366124B8033436601F00D
:101000001F040123A340836618E00378103B1824D3
:10101000B3FBF4F10C4B9A4204D80B4BA83B9A4219
:1010200000D30831094B03EB81030366074B803380
:10103000436601F01F040123A340836610BD000036
:101040000854025800580258B804024000080240F0
:101050000179A9B3082940D8204B02689A4222D0CE
:101060001E4B143302689A421DD01C4B2833026871
:101070009A4218D0194B3C3302689A4213D0174B4E
:10108000503302689A420ED0144B643302689A427D
:1010900009D0124B783302689A4204D00F4B8C333C
:1010A00002689A4201D1012200E000224AB14A1EA0
:1010B0000B4B03EB8202C266094A4032026708E02A
:1010C0000BE04A1E074B03EB8202C266054A403220
:1010D00002674A1E01239340436770470854025831
:1010E0000059025800090240014600208A69D2B91D
:1010F0008A6A32B1012A0DD0022A03D0032A10D104
:101100000EE000BFCA6A02F08072B2F1807F00D1A7
:10111000012007E0CA6AB2F1C07F00D1012001E0DE
:1011200000E000BF36E08A69B2F5005F1BD18A6A31
:1011300032B1012A07D0022A03D0032A11D10AE0D2
:1011400000BF01200EE0CA6A02F08072B2F1807F17
:1011500000D1012006E0CA6AB2F1C07F00D10120AF
:1011600000E000BF16E08A6A32B1012A05D0022AE7
:1011700004D0032A0CD103E000BF00BF012008E027
:10118000CA6A02F08072B2F1807F00D1012000E0D3
:1011900000BF00BF7047000030B5384D0468AC4256
:1011A00049D0364D18350468AC4244D0334D303503
:1011B0000468AC423FD0314D48350468AC423AD067
:1011C0002E4D60350468AC4235D02C4D783504681E
:1011D000AC4230D0294D90350468AC422BD0274D1D
:1011E000A8350468AC4226D0254D0468AC4222D014
:1011F000234D18350468AC421DD0214D30350468AC
:10120000AC4218D01E4D48350468AC4213D01C4D7A
:1012100060350468AC420ED0194D78350468AC4294
:1012200009D0174D90350468AC4204D0144DA83550
:101230000468AC4201D1012400E0002474B10468C8
:1012400063608468402C04D10468A2600468E16093
:1012500012E00468A1600468E2600DE00468636065
:101260008468402C04D10468A2600468E16003E053
:101270000468A1600468E26030BD00001000024014
:1012800010040240F0B5856D846D984F0668BE422B
:1012900070D0964F18370668BE426BD0934F3037E8
:1012A0000668BE4266D0914F48370668BE4261D09C
:1012B0008E4F60370668BE425CD08C4F7837066828
:1012C000BE4257D0894F90370668BE4252D0874FF2
:1012D000A8370668BE424DD0854F0668BE4249D049
:1012E000834F18370668BE4244D0814F30370668B6
:1012F000BE423FD07E4F48370668BE423AD07C4F50
:1013000060370668BE4235D0794F78370668BE42EE
:1013100030D0774F90370668BE422BD0744FA83735
:101320000668BE4226D0734F0668BE4222D0714F77
:1013300014370668BE421DD06E4F28370668BE427D
:1013400018D06C4F3C370668BE4213D0694F5037F7
:101350000668BE420ED0674F64370668BE4209D0A9
:10136000644F78370668BE4204D0624F8C370668F7
:10137000BE4201D1012600E000263EB1D0E9197637
:101380007E60C66E16B1D0E91C767E60574F066847
:10139000BE4249D0554F18370668BE4244D0534F1D
:1013A00030370668BE423FD0504F48370668BE42CD
:1013B0003AD04E4F60370668BE4235D04B4F783733
:1013C0000668BE4230D0494F90370668BE422BD0E7
:1013D000464FA8370668BE4226D0454F0668BE4233
:1013E00022D0434F18370668BE421DD0404F3037D9
:1013F0000668BE4218D03E4F48370668BE4213D03A
:101400003B4F60370668BE420ED0394F78370668CA
:10141000BE4209D0364F90370668BE4204D0344FE2
:10142000A8370668BE4201D1012600E00026DEB1E1
:1014300090F85C6006F01F073F26BE40AE6006686D
:10144000366826F4802607683E6006687360866802
:10145000402E04D10668B2600668F16044E0066878
:10146000B1600668F2603FE0224F0668BE4222D0BB
:10147000204F14370668BE421DD01E4F283706681D
:10148000BE4218D01B4F3C370668BE4213D0194FDE
:1014900050370668BE420ED0164F64370668BE420B
:1014A00009D0144F78370668BE4204D0114F8C37EC
:1014B0000668BE4201D1012600E00026A6B190F8E0
:1014C0005C6006F01F070126BE4066600668736018
:1014D0008668402E04D10668B2600668F16003E0B9
:1014E0000668B1600668F260F0BD000010000240BE
:1014F0001004024008540258704772B600BFFEE75D
:10150000F0B504460D46059E0020EEE00021E6E021
:101510002F18C7EB071704EB07170F4433F81770A2
:1015200000FB021C26F81C702F18C7EB071704EBF2
:1015300007170F447F1C33F817C04F1C00FB0277BE
:1015400026F817C02F18C7EB071704EB07170F442F
:10155000BF1C33F817C08F1C00FB027726F817C09A
:101560002F18C7EB071704EB07170F44FF1C33F8BE
:1015700017C0CF1C00FB027726F817C02F18C7EB47
:10158000071704EB07170F443F1D33F817C00F1D53
:1015900000FB027726F817C02F18C7EB071704EBDC
:1015A00007170F447F1D33F817C04F1D00FB02774C
:1015B00026F817C02F18C7EB071704EB07170F44BF
:1015C000BF1D33F817C08F1D00FB027726F817C028
:1015D0002F18C7EB071704EB07170F44FF1D33F84D
:1015E00017C0CF1D00FB027726F817C02F18C7EBD6
:1015F000071704EB07170F44083733F817C001F13A
:10160000080700FB027726F817C02F18C7EB07174B
:1016100004EB07170F44093733F817C001F1090726
:1016200000FB027726F817C02F18C7EB071704EB4B
:1016300007170F440A3733F817C001F10A0700FBF8
:10164000027726F817C02F18C7EB071704EB071708
:101650000F440B3733F817C001F10B0700FB02777B
:1016600026F817C02F18C7EB071704EB07170F440E
:101670000C3733F817C001F10C0700FB027726F88E
:1016800017C02F18C7EB071704EB07170F440D37C8
:1016900033F817C001F10D0700FB027726F817C0D9
:1016A0002F18C7EB071704EB07170F440E3733F853
:1016B00017C001F10E0700FB027726F817C02F189C
:1016C000C7EB071704EB07170F440F3733F817C0A2
:1016D00001F10F0700FB027726F817C01031A2F1C5
:1016E0000F078F423FF614AF401C9042FFF40EAF3D
:1016F000F0BD70B503460C4600201F2104F0010523
:101700000DB9012022E000BF0D1EA1F1010106D09C
:1017100001F01F060125B5402540002DF4D08AB107
:10172000082A0BD0102A05D0182A0CD1072900D37B
:1017300001200AE0082900D3012006E0102900D387
:10174000012002E001E0012000BF00BF40B91D6898
:101750006C611D68AD6825F0180515431E68B560FD
:1017600070BD000010B504460CB9012010BD607FAB
:1017700020B900202077204600F036F8022060775C
:10178000207948B91748216848612068806820F0AE
:1017900018002168886007E02046D4E90212FFF7AC
:1017A000A8FF08B10120E1E7607920B94FF0FF30D0
:1017B0002168086102E0216820690861206880686A
:1017C00020F06000616908432168886020688068B3
:1017D00020F08000A16908432168886001206077BB
:1017E0000020C3E7B71DC10408B5094A016891424A
:1017F0000DD100BF0749096841F40021054A116075
:101800001146096801F40021009100BF00BF08BD26
:10181000004C0258E044025870B50446049D00BFD5
:1018200094F83400012801D1022070BD012084F811
:10183000340000BF022084F8350043EA05402668E2
:10184000706241EA024026683062012084F8350067
:1018500000BF002084F8340000BF00BFE5E7014668
:1018600000BF91F83400012801D102207047012007
:1018700081F8340000BF022081F835000868006854
:1018800040F004000A681060012081F8350000BFB4
:10189000002081F8340000BF00BFE7E77047000078
:1018A00010B5044602F01EFA0C490968401AB0F55A
:1018B0007A7F0AD302F016FA0849086008480078CF
:1018C0000849087000200649087005480078401C47
:1018D0000349087001200449087010BD040000206D
:1018E00008000020010000200000002070B5044620
:1018F0002068056905F0040004280ED121684861BC
:10190000E06C40F00200E064042084F835002348D5
:10191000A16C0865A06C00F0FFFC05F00200022835
:101920000ED121684861E06C40F00100E0640420C1
:1019300084F835001948A16C0865A06C00F0ECFC37
:1019400005F01000102804D121684861204600F0FD
:1019500077F805F00800082804D12168486120467E
:1019600000F0D4F905F00100B8B12068006800F07B
:101970000200022805D12068C06820F01E002168FE
:10198000C8602068C06820F001002168C86001209C
:10199000216848612046FFF783FF70BD050D0008F0
:1019A00010B504460CB9012010BD94F8350010B9EB
:1019B000204600F047F8022084F83500A06908B1FD
:1019C00000216162206800681C49084021680860A5
:1019D000616960680843E168084321690843A168B8
:1019E0000843A1690843216A0843616A0843A16A60
:1019F0000843E16A0843216B0843216809680843EA
:101A000021680860606810280BD1217F607F41EA5F
:101A10000021A07F41EA0041E07F41EA00602168A7
:101A200088612068C06840F01E002168C8600020FE
:101A3000E064012084F835000020B5E707F0E0FFFE
:101A40007047000010B586B00446142101A8FEF7C7
:101A5000D4FC5E49206888427ED100BF5C480068A3
:101A600040F001005A4908600846006800F0010093
:101A7000009000BF00BF00BF081D006840F01000CC
:101A8000091D08600846006800F01000009000BFC3
:101A900000BF00BF0846006840F00100086008462B
:101AA000006800F00100009000BF00BF00BF0846C2
:101AB000006840F0040008600846006800F0040078
:101AC000009000BF00BF00BF0846006840F008005B
:101AD00008600846006800F00800009000BF00BFE2
:101AE00000BF0846006840F04000086008460068F3
:101AF00000F04000009000BF00BF00BF0846006833
:101B000040F0200008600846006800F020000090C7
:101B100000BF00BF702001900220029000200390BF
:101B2000032004900D20059001A92A4801F0CAFF66
:101B30005020019002200290002003900320049086
:101B40000D20059001A9244801F0BCFFC0200190A0
:101B500002200290002000E036E003900320049071
:101B60000D20059001A91D4801F0ACFF082001904F
:101B70000220029000200390032004900D20059085
:101B800001A9174801F09EFF4FF460600190022008
:101B9000029000200390032004900D20059001A9DD
:101BA000104801F08FFF012251030F4802F094F812
:101BB0004FF4005001900120029003900020049007
:101BC00001A9094801F07EFF06B010BD00000248DF
:101BD000DC44025800100258000002580008025865
:101BE000000C025800180258001402582DE9F8435E
:101BF00004460F4615461E4600BF94F834000128DF
:101C000002D10220BDE8F883012084F8340000BF2F
:101C1000022084F835002068006840F48040216884
:101C200008602068006820F00200216808602068D1
:101C300000683843216808603248A16CC8633248A4
:101C4000A16CC8640020A16C0865A0632064E063F7
:101C50006064B6F5803F15D2226802F12801334650
:101C60002A46A06C01F02AFD00283DD04020E06407
:101C7000012084F8350000BF002084F8340000BF44
:101C80000120BFE71F48A16C48640120A063E66300
:101C9000656405E0E06B4008E063A06B4000A06372
:101CA000E06BB0F5803FF5D2A06B801EA063A06B07
:101CB0002064E06B042101FB0058E06B0090226877
:101CC00002F1280143462A46A06C00F089F858B179
:101CD0004020E064012084F8350000BF002084F833
:101CE000340000BF01208DE72068006840F001004B
:101CF0002168086000BF002084F8340000BF00BFE6
:101D000080E70000290D0008050D0008704700005D
:101D100010B50346304C1868A04249D02E4C1834F8
:101D20001868A04244D02C4C30341868A0423FD0F0
:101D3000294C48341868A0423AD0274C60341868BF
:101D4000A04235D0244C78341868A04230D0224CC0
:101D500090341868A0422BD01F4CA8341868A042B9
:101D600026D01E4C1868A04222D01C4C183418688B
:101D7000A0421DD0194C30341868A04218D0174C1E
:101D800048341868A04213D0144C60341868A0423C
:101D90000ED0124C78341868A04209D00F4C903401
:101DA0001868A04204D00D4CA8341868A04201D194
:101DB000012000E0002030B112B91868C16008E0CD
:101DC0001868016105E012B91868C16001E018687F
:101DD0000161002010BD000010000240100402400C
:101DE0002DE9F04704460F4690461E46DDF8209048
:101DF0004FF0000AA068802804D1400060650120EF
:101E0000BDE8F08700BF94F83400012801D102201A
:101E1000F6E7012084F8340000BF94F8350001286B
:101E20007ED1022084F8350000206065F9492068E1
:101E3000884249D0F74918312068884244D0F54992
:101E40003031206888423FD0F249483120688842CA
:101E50003AD0F04960312068884235D0ED49783178
:101E60002068884230D0EB499031206888422BD0DE
:101E7000E849A8312068884226D0E749206888428E
:101E800022D0E5491831206888421DD0E24930311E
:101E90002068884218D0E04948312068884213D031
:101EA000DD496031206888420ED0DB4978312068F6
:101EB000884209D0D84990312068884204D0D64958
:101EC000A8312068884201D1012000E0002090B1B3
:101ED0002068006840F4802021680860206806615E
:101EE000A06D00F1080594F85C0000F01F013F2090
:101EF0008840286011E02068006848F2200108430B
:101F00002168086020680661A06D051D94F85C00DA
:101F100000F01F010120884028604B46424600E047
:101F2000EFE139462046FFF737F9BA492068884281
:101F300070D0B8491831206888426BD0B54930312B
:101F40002068884266D0B34948312068884261D011
:101F5000B0496031206888425CD0AE497831206851
:101F6000884257D0AB4990312068884252D0A94965
:101F7000A831206888424DD0A7492068884249D0BE
:101F8000A54918312068884244D0A34930312068DF
:101F900088423FD0A0494831206888423AD09E49C3
:101FA00060312068884235D09B497831206888426A
:101FB00030D099499031206888422BD09649A83179
:101FC0002068884226D095492068884222D09349CB
:101FD0001431206888421DD09049283120688842F9
:101FE00018D08E493C312068884213D08B4950313B
:101FF000206888420ED0894964312068884209D01F
:10200000864978312068884204D084498C31206820
:10201000884201D1012000E0002038B1D4E9191034
:102020004860E06E10B1D4E91C104860794920681E
:10203000884249D0774918312068884244D0754990
:102040003031206888423FD0724948312068884248
:102050003AD0704960312068884235D06D49783176
:102060002068884230D06B499031206888422BD05C
:102070006849A8312068884226D06749206888428C
:1020800022D065491831206888421DD0624930311C
:102090002068884218D0604948312068884213D0AF
:1020A0005D496031206888420ED05B4978312068F4
:1020B000884209D0584990312068884204D0564956
:1020C000A8312068884201D1012000E00020C0B181
:1020D0002068006820F01E0040F0160021680860AB
:1020E0002068406940F0800021684861206C08B990
:1020F000A06CC0B12068006840F00800216808604A
:1021000011E02068006820F00E0040F00A0021680D
:102110000860206C08B9A06C28B12068006840F005
:102120000400216808603B492068884270D0394922
:102130001831206888426BD0364930312068884297
:1021400066D0344948312068884261D031496031D5
:10215000206888425CD02F4978312068884257D067
:102160002C4990312068884252D02A49A8312068F1
:1021700088424DD028492068884249D026491831E4
:102180002068884244D024493031206888423FD0BA
:1021900021494831206888423AD01F49603120687F
:1021A000884235D01C4978312068884230D01A499D
:1021B0009031206888422BD01749A8312068884286
:1021C00026D016492068884222D01449143120684C
:1021D00088421DD0114928312068884218D00F4903
:1021E0003C312068884213D00C4950312068884225
:1021F0000ED00A4964312068884209D007497831F5
:102200002068884204D005498C312068884207D173
:10221000012006E010000240100402400854025859
:10222000002090B1206E006800F4803028B1206E4C
:10223000006840F48070216E0860E06E28B1E06EA6
:10224000006840F48070E16E08603149206888427F
:1022500049D02F4918312068884244D02C49303168
:10226000206888423FD02A494831206888423AD0C5
:10227000274960312068884235D025497831206867
:10228000884230D022499031206888422BD02049A2
:10229000A8312068884226D01E492068884222D072
:1022A0001C491831206888421DD01A4930312068F5
:1022B000884218D0174948312068884213D0154900
:1022C0006031206888420ED01249783120688842F7
:1022D00009D0104990312068884204D00D49A831B6
:1022E0002068884206D12068006840F0010021681B
:1022F00008600BE02068006840F001002168086079
:1023000004E04FF4006060654FF0010A504677E545
:10231000100002401004024070B504460CB90120C0
:1023200070BD94F83500022803D08020606501203C
:10233000F6E7DC492068884249D0DA49183120683C
:10234000884244D0D7493031206888423FD0D549AF
:102350004831206888423AD0D249603120688842AA
:1023600035D0D04978312068884230D0CD4990317D
:10237000206888422BD0CB49A8312068884226D0DB
:10238000C9492068884222D0C7491831206888424C
:102390001DD0C54930312068884218D0C249483123
:1023A0002068884213D0C0496031206888420ED02E
:1023B000BD4978312068884209D0BB4990312068F6
:1023C000884204D0B849A8312068884201D1012050
:1023D00000E00020F0B3042084F83500B149206803
:1023E00088424BD0AF4918312068884246D0AD4969
:1023F00030312068884241D0AA494831206888425B
:102400003CD0A84960312068884237D0A54978314E
:102410002068884232D0A3499031206888422DD06C
:10242000A049A8312068884228D09F492068884266
:1024300024D09D491831206888421FD09A493031F4
:10244000206888421AD0984948312068884215D0BF
:10245000954900E020E06031206888420ED0924922
:1024600078312068884209D08F49903120688842AD
:1024700004D08D49A8312068884206D120680068C0
:1024800020F001002168086009E12068006820F060
:1024900001002168086002E12068006820F00E0059
:1024A000216808607F492068884249D07D491831F9
:1024B0002068884244D07B493031206888423FD030
:1024C00078494831206888423AD07649603120689E
:1024D000884235D0734978312068884230D07149BC
:1024E0009031206888422BD06E49A83120688842FC
:1024F00026D06D492068884222D06B491831206867
:1025000088421DD0684930312068884218D0664919
:1025100048312068884213D063496031206888427E
:102520000ED0614978312068884209D05E499031E7
:102530002068884204D05C49A8312068884206D1CE
:102540002068006820F001002168086005E020682C
:10255000006820F001002168086052492068884224
:1025600070D050491831206888426BD04D493031C5
:102570002068884266D04B4948312068884261D043
:1025800048496031206888425CD0464978312068EB
:10259000884257D0434990312068884252D04149FF
:1025A000A831206888424DD03F492068884249D0F0
:1025B0003D4918312068884244D03B493031206879
:1025C00088423FD038494831206888423AD036495D
:1025D00060312068884235D033497831206888429C
:1025E00030D031499031206888422BD02E49A83113
:1025F0002068884226D02D492068884222D02B4965
:102600001431206888421DD028492831206888422A
:1026100018D026493C312068884213D023495031D4
:10262000206888420ED0214964312068884209D050
:102630001E4978312068884204D01C498C312068BA
:10264000884201D1012000E00020D8B1206E00684E
:1026500020F48070216E0860A56D94F85C0000F095
:102660001F01012088406860D4E919104860E06EBD
:1026700040B1E06E006820F48070E16E0860D4E93B
:102680001C104860012084F8350000BF002084F849
:10269000340000BF206D10B12046216D8847002016
:1026A0003EE60000100002401004024008540258A8
:1026B0002DE9F84F044600200090FE4800684FF4D2
:1026C0001651B0FBF1FAA66DD4F858803768D8F8E7
:1026D0000090F9492068884249D0F74918312068AC
:1026E000884244D0F4493031206888423FD0F249D2
:1026F0004831206888423AD0EF49603120688842EA
:1027000035D0ED4978312068884230D0EA4990319F
:10271000206888422BD0E849A8312068884226D01A
:10272000E6492068884222D0E4491831206888426E
:102730001DD0E24930312068884218D0DF49483145
:102740002068884213D0DD496031206888420ED06D
:10275000DA4978312068884209D0D8499031206818
:10276000884204D0D549A8312068884201D101208F
:1027700000E0002000287DD094F85C0000F01F01EC
:10278000082088403840002868D0CB49206888421B
:1027900049D0C94918312068884244D0C6493031EF
:1027A000206888423FD0C4494831206888423AD0E6
:1027B000C14960312068884235D0BF4978312068EE
:1027C000884230D0BC499031206888422BD0BA4929
:1027D000A8312068884226D0B8492068884222D093
:1027E000B6491831206888421DD0B449303120687C
:1027F000884218D0B14948312068884213D0AF4987
:102800006031206888420ED0AC4978312068884217
:1028100009D0AA4990312068884204D0A749A8313C
:102820002068884204D12068006800F0040003E0BA
:102830002068006800F0080080B12068006820F07F
:1028400004002168086094F85C0000F01F01082073
:102850008840B060606D40F00100606594F85C00F5
:1028600000F01F01012088403840E8B392492068F9
:10287000884200E0B7E24BD08F4918312068884287
:1028800046D08D4930312068884241D08A4948314C
:10289000206888423CD0884960312068884237D01F
:1028A000854978312068884232D083499031206848
:1028B00088422DD08049A8312068884228D07F499D
:1028C0002068884224D07D491831206888421FD072
:1028D0007A493031206888421AD0784948312068D6
:1028E000884215D0754900E026E0603120688842B2
:1028F0000ED0724978312068884209D06F499031F2
:102900002068884204D06D49A8312068884204D1EB
:102910002068406900F0800002E020680068002024
:1029200050B194F85C0000F01F0101208840B060B5
:10293000606D40F00200606594F85C0000F01F01DB
:10294000042088403840E8B35B49206888424BD077
:10295000594918312068884246D05749303120689B
:10296000884241D054494831206888423CD052497D
:1029700060312068884237D04F49783120688842DA
:1029800032D04D499031206888422DD04A49A83133
:102990002068884228D049492068884224D0474985
:1029A0001831206888421FD044493031206888425D
:1029B0001AD0424948312068884215D03F496031D9
:1029C000206800E024E088420ED03C49783120683D
:1029D000884209D0394990312068884204D037496B
:1029E000A8312068884204D12068006800F0020005
:1029F00002E020680068002050B194F85C0000F00C
:102A00001F0104208840B060606D40F004006065E4
:102A100094F85C0000F01F01102088403840E8B3B3
:102A200025492068884251D02349183120688842BE
:102A30004CD0214930312068884247D01E49483166
:102A40002068884242D01C496031206888423DD0CD
:102A5000194978312068884238D017499031206868
:102A6000884233D01449A831206888422ED01349B7
:102A7000206888422AD0114918312068884225D020
:102A80000E4930312068884220D00C4948312068F6
:102A900088421BD009496031206800E04DE088423F
:102AA00014D006497831206888420FD0034990310C
:102AB000206805E098000020100002401004024049
:102AC000884203D0FE492068884204D1206800680B
:102AD00000F0080003E02068006800F0040060B324
:102AE00094F85C0000F01F0110208840B06020685E
:102AF000006800F4802080B12068006800F40020A5
:102B000028B9206CC8B12046216C884715E0A06C1C
:102B100098B12046A16C88470FE02068006800F457
:102B2000807028B92068006820F0080021680860DB
:102B3000206C10B12046216C884794F85C0000F0AE
:102B40001F0120208840384000287DD0DD492068C2
:102B5000884249D0DB4918312068884244D0D9499D
:102B60003031206888423FD0D649483120688842B9
:102B70003AD0D44960312068884235D0D149783183
:102B80002068884230D0CF499031206888422BD0CD
:102B9000CC49A8312068884226D0C949A839206884
:102BA000884221D0C6499039206888421CD0C44947
:102BB00078392068884217D0C14960392068884236
:102BC00012D0BF494839206888420DD0BC493039FD
:102BD0002068884208D0BA4918392068884203D052
:102BE000B7492068884204D12068006800F01000CE
:102BF00003E02068006800F0020028B394F85C004D
:102C000000F01F0120208840B06094F835000428AF
:102C10002DD12068006820F0160021680860206827
:102C2000406920F0800021684861206C08B9A06CE0
:102C300028B12068006820F008002168086094F836
:102C40005C0000F01F0100E03FE03F208840B060E2
:102C5000012084F8350000BF002084F8340000BF54
:102C6000206D10B12046216D8847BDE8F88F20689F
:102C7000006800F4802080B12068006800F4002023
:102C800028B9606C08B32046616C88471DE0E06B92
:102C9000D8B12046E16B884717E02068006800F44F
:102CA000807068B92068006820F010002168086012
:102CB000012084F8350000BF002084F8340000BFF4
:102CC000E06B10B12046E16B8847606D00287AD038
:102CD000606D00F00100E8B3042084F83500794904
:102CE000206888424BD0774918312068884246D006
:102CF000744930312068884241D072494831206897
:102D000088423CD06F4960312068884237D06D4995
:102D100078312068884232D06A49903120688842F0
:102D20002DD06849A8312068884228D06449A83944
:102D30002068884223D062499039206888421ED09A
:102D40005F4978392068884219D05D496039206828
:102D5000884200E040E012D0594948392068884252
:102D60000DD0574930392068884208D05449183965
:102D70002068884203D052492068884206D12068E2
:102D8000006820F001002168086005E02068006804
:102D900020F001002168086000BF0098401C0090EE
:102DA000504500D905E02068006800F001000028C7
:102DB000F3D100BF2068006800F0010020B10320BB
:102DC00084F8350003E00DE0012084F8350000BFF1
:102DD000002084F8340000BFE06C002802D02046B8
:102DE000E16C8847D9E138492068884222D03649C9
:102DF0001431206888421DD0334928312068884228
:102E000018D031493C312068884213D02E495031C6
:102E1000206888420ED02C4964312068884209D04D
:102E2000294978312068884204D027498C312068AC
:102E3000884201D1012000E000200028D2D0206883
:102E4000056894F85C0000F01F010420884000EA47
:102E50000900D8B305F00400C0B394F85C0000F09A
:102E60001F0104208840C8F8040005F4004080B128
:102E700005F4803030B9A06C0028B3D02046A16C96
:102E800088478AE1206C0028ACD02046216C884716
:102E900083E105F02000E8BB0A492068884253D04E
:102EA00008491831206888424ED0064930312068E0
:102EB000884249D0034948312068884244D006E01E
:102EC000B804024010000240085402584FE0B449D0
:102ED00060312068884237D0B14978312068884213
:102EE00032D0AF499031206888422DD0AC49A8310A
:102EF0002068884228D0AB492068884224D0A9495C
:102F00001831206888421FD0A64930312068884295
:102F10001AD000E025E0A34948312068884213D048
:102F2000A0496031206888420ED09E4978312068DF
:102F3000884209D09B4990312068884204D0994941
:102F4000A8312068884206D12068006820F0080077
:102F50002168086005E02068006820F0040021680E
:102F60000860206C10B32046216C884715E194F866
:102F70005C0000F01F010220884000EA0900E8B36D
:102F800005F00200D0B394F85C0000F01F010220AD
:102F90008840C8F8040005F4004070B105F48030A2
:102FA00028B9606C10B12046616C8847F5E0E06B91
:102FB000F0B32046E16B8847EFE005F02000C0BB8E
:102FC0007749206888424ED0754918312068884278
:102FD00049D0734930312068884244D07049483123
:102FE000206888423FD06E496031206888423AD0DC
:102FF0006B4978312068884235D000E04EE068495E
:103000009031206888422ED06549A83120688842D6
:1030100029D064492068884225D062491831206847
:10302000884220D05F493031206888421BD001E0BF
:103030006EE02DE05B4948312068884213D0594941
:103040006031206888420ED0564978312068884225
:1030500009D0544990312068884204D05149A831A0
:103060002068884206D12068006820F0140021689A
:10307000086005E02068006820F00A002168086008
:10308000012084F8350000BF002084F8340000BF20
:10309000E06BE8B32046E16B88477EE094F85C0083
:1030A00000F01F010820884000EA090080B305F005
:1030B000080068B33A49206888424BD03849183133
:1030C0002068884246D0364930312068884241D055
:1030D00033494831206888423CD03149603120680A
:1030E000884237D02E4978312068884232D02C4926
:1030F0009031206888422DD02949A8312068884223
:1031000028D028492068884224D02649183100E078
:1031100043E0206888421DD022493031206888422F
:1031200018D0204948312068884213D01D496031A9
:10313000206888420ED01B4978312068884209D027
:10314000184990312068884204D01649A831206877
:10315000884206D12068006820F01C0021680860C1
:1031600005E02068006820F00E002168086094F8EF
:103170005C0000F01F0101208840C8F80400012015
:10318000606584F8350000BF002084F8340000BF7B
:10319000E06C10B12046E16C884700BF65E5000097
:1031A00010000240100402402DE9F041044600F0F6
:1031B00099FD804614B90120BDE8F081FE492068E0
:1031C000884249D0FC4918312068884244D0FA49E5
:1031D0003031206888423FD0F74948312068884222
:1031E0003AD0F54960312068884235D0F2497831CB
:1031F0002068884230D0F0499031206888422BD036
:10320000ED49A8312068884226D0EC4920688842E0
:1032100022D0EA491831206888421DD0E749303170
:103220002068884218D0E54948312068884213D088
:10323000E2496031206888420ED0E0497831206848
:10324000884209D0DD4990312068884204D0DB49AA
:10325000A8312068884201D1012000E00020002828
:1032600073D0606A00B100BF022084F8350000BF4F
:10327000002084F8340000BFCF492068884249D03C
:10328000CD4918312068884244D0CB49303120687C
:1032900088423FD0C8494831206888423AD0C64960
:1032A00060312068884235D0C3497831206888422F
:1032B00030D0C1499031206888422BD0BE49A83116
:1032C0002068884226D0BD492068884222D0BB4968
:1032D0001831206888421DD0B849303120688842B2
:1032E00018D0B64948312068884213D0B3496031BC
:1032F000206888420ED0B14978312068884209D0D0
:10330000AE4990312068884204D0AC49A831206889
:10331000884206D12068006820F00100216808601A
:1033200005E02068006820F00100216808600DE0D9
:1033300000F0D8FCA0EB0800052807D92020606524
:10334000032084F83500012036E769E02068006832
:1033500000F001000028EBD120680568984805407E
:10336000D4E9020108432169084361690843A1695E
:103370000843E1690843216A08430543606A042859
:1033800003D1D4E90B01084305436068292802D31F
:1033900060682E2817D960683F2802D360684228E9
:1033A00011D96068472802D3606848280BD9606843
:1033B0004F2802D36068522805D96068742804D366
:1033C0006068772801D8012000E0002008B145F4AA
:1033D0008015206805602068456925F00705606A4A
:1033E0000543606A04280DD1A06A0543E06A48B12C
:1033F0002046FDF779FE28B140206065012084F861
:103400003500D9E6206845612046FDF749FD0646AE
:1034100094F85C0000F01F013F208840B0609EE0FF
:1034200068492068884222D0664914312068884261
:103430001DD0644928312068884218D061493C3148
:103440002068884213D05F495031206888420ED0EE
:103450005C4964312068884209D05A497831206833
:10346000884204D057498C312068884201D101201C
:1034700000E00020E0B353492068884222D051493F
:103480001431206888421DD04E4928312068884276
:1034900018D04C493C312068884213D049495031FA
:1034A000206888420ED0474964312068884209D09C
:1034B000444978312068884204D042498C312068E0
:1034C000884201D1012000E0002000B100BF0220AD
:1034D00084F8350000BF002084F8340000BF206865
:1034E000056839480540A068402802D1102106E04F
:1034F0002EE0A068802801D1C10100E00021E06831
:1035000041EAD001206941EAD001606941EAD00175
:10351000A06941EAD001E06941EAD001206A41EAAC
:10352000101005432068056026492068401A1421C0
:10353000B0FBF1F08000E0652046FDF7B1FC0746E6
:1035400094F85C0000F01F0101208840786006E0DC
:1035500040206065032084F8350001202CE61649E0
:10356000206888427AD0144918312068884275D082
:10357000114930312068884270D00F4948312068A5
:1035800088426BD00C4960312068884266D00A4975
:1035900078312068884261D007499031206888429C
:1035A0005CD00549A8312068884257D0034920687B
:1035B000884253D0014909E0100002401004024043
:1035C0003F8010FE085402580F00FEFF183120689B
:1035D000884243D03749206888423FD03549183166
:1035E000206888423AD0334930312068884235D04B
:1035F000304948312068884230D02E4960312068F7
:1036000088422BD02B4978312068884226D02A491D
:103610002068884222D028491431206888421DD071
:10362000254928312068884218D023493C31206838
:10363000884213D020495031206888420ED01E495C
:1036400064312068884209D01B497831206888425B
:1036500004D019498C312068884201D1012000E052
:10366000002000B32046FDF791FCA068802801D11E
:10367000002060602079216E0860D4E9191048604C
:10368000606860B16068082809D82046FDF7E0FC52
:103690000020E16E0860D4E91C10486003E00020BF
:1036A000E0662067606700206065012084F83500CF
:1036B000002081E540040240085402582DE9F04101
:1036C00004460D4616461F464FF0000814B9012067
:1036D000BDE8F08100BF94F83400012801D1022038
:1036E000F6E7012084F8340000BF94F83500012883
:1036F0007ED1022084F8350000206065E44920680E
:10370000884249D0E24918312068884244D0E049D3
:103710003031206888423FD0DD49483120688842F6
:103720003AD0DB4960312068884235D0D8497831B9
:103730002068884230D0D6499031206888422BD00A
:10374000D349A8312068884226D0D24920688842CF
:1037500022D0D0491831206888421DD0CD4930315F
:103760002068884218D0CB4948312068884213D05D
:10377000C8496031206888420ED0C6497831206837
:10378000884209D0C34990312068884204D0C14999
:10379000A8312068884206D12068006820F0010026
:1037A0002168086005E02068006820F001002168B9
:1037B00008603B46324629462046FDF763FDB44982
:1037C000206888424BD0B24918312068884246D0E0
:1037D000AF4930312068884241D0AD494831206836
:1037E00088423CD0AA4960312068884237D000E046
:1037F00042E1A74978312068884230D0A44990310D
:10380000206888422BD0A249A8312068884226D05F
:10381000A0492068884222D09E49183120688842F9
:103820001DD09C4930312068884218D099494831D0
:103830002068884213D097496031206888420ED0B2
:10384000944978312068884209D0924990312068A3
:10385000884204D08F49A8312068884201D10120D4
:1038600000E0002080B12068006820F01E0040F0D9
:10387000160021680860206CB0B12068006840F034
:103880000800216808600FE02068006820F00E0042
:1038900040F00A0021680860206C28B120680068A8
:1038A00040F004002168086079492068884270D09F
:1038B00077491831206888426BD0754930312068CB
:1038C000884266D0724948312068884261D0704988
:1038D0006031206888425CD06D4978312068884228
:1038E00057D06B4990312068884252D06849A8313E
:1038F000206888424DD067492068884249D0654990
:1039000018312068884244D06249303120688842AA
:103910003FD060494831206888423AD05D496031E3
:103920002068884235D05B4978312068884230D0A1
:1039300058499031206888422BD05649A8312068D8
:10394000884226D054492068884222D052491431F6
:10395000206888421DD0504928312068884218D0FC
:103960004D493C312068884213D04B495031206882
:1039700088420ED0484964312068884209D04649BF
:1039800078312068884204D043498C3120688842CD
:1039900001D1012000E0002090B1206E006800F409
:1039A000803028B1206E006840F48070216E08607D
:1039B000E06E28B1E06E006840F48070E16E08604F
:1039C00033492068884249D03149183120688842FB
:1039D00044D02F493031206888423FD02C494831AB
:1039E000206888423AD02A4960312068884235D020
:1039F000274978312068884230D0254990312068A5
:103A000088422BD02249A8312068884226D02149FB
:103A10002068884222D01F491831206888421DD072
:103A20001C4930312068884218D01A494831206832
:103A3000884213D017496031206888420ED015495A
:103A400078312068884209D0124990312068884234
:103A500004D01049A8312068884206D12068006847
:103A600040F001002168086010E02068006840F024
:103A700001002168086009E04FF40060606500BF44
:103A8000002084F8340000BF4FF0010840461FE6D4
:103A900010000240100402400854025870B5044659
:103AA00000F020F906462546681C10B1044800784D
:103AB000054400BF00F016F9801BA842FAD370BD80
:103AC00094000020F8B502460B4600216D4DD2E06F
:103AD00001278F401E6806EA0704002C72D01E7969
:103AE00006F00306012E04D01E7906F00306022E0E
:103AF00013D190684F000326BE40B0434F00DE68EC
:103B0000BE4030439060506801268E40B0431E791D
:103B1000C6F300168E40304350601E7906F003064F
:103B2000032E09D0D0684F000326BE40B0434F009B
:103B30009E68BE403043D0601E7906F00306022E18
:103B400013D1CF0802F1200656F827004E07F70ED2
:103B50000F26BE40B0434F07FF0E1E69BE403043E4
:103B6000CF0802F1200646F8270010684F00032610
:103B7000BE40B0431E7906F003064F00BE403043FE
:103B800010605E6806F44036002E73D000BF3E4ED3
:103B9000366846F002063C4F3E603E46366806F008
:103BA0000206009600BF00BF384E8F0856F8270067
:103BB0008E07370F0F26BE40B043354EB24202D1BA
:103BC000002629E056E0334EB24201D1012623E01F
:103BD000314EB24201D102261EE0304EB24201D136
:103BE000032619E02E4EB24201D1042614E02D4ED8
:103BF000B24201D105260FE02B4EB24201D106267A
:103C00000AE02A4EB24201D1072605E0284EB24210
:103C100001D1092600E00A268F073F0FBE4030433E
:103C20001A4E8F0846F827004FF0B0463068A04380
:103C30005E6806F4801606B120434FF0B04630604F
:103C40007068A0435E6806F4001606B120434FF08A
:103C5000B04670606868A0435E6806F4003606B13E
:103C6000204368602868A0435E6806F4803606B189
:103C700020432860491C1E68CE40002E7FF428AFE8
:103C8000F8BD000080000058F444025808040058B1
:103C9000000002580004025800080258000C0258A4
:103CA000001002580014025800180258001C025854
:103CB00000240258024613690B400BB1012000E0BA
:103CC0000020704710B5426921EA020302EA0104AC
:103CD00043EA0443836110BD0AB1816101E00B0432
:103CE0008361704701480068704700008C00002025
:103CF000034800680349097808440149086070478F
:103D00008C0000209400002010B5032000F020F962
:103D100001F0E2FB10490968C1F303210F4A515C2D
:103D200001F01F0120FA01F40B48006800F00F00B9
:103D30001146085C00F01F0024FA00F008490860F2
:103D4000084804600F2000F00FF808B1012010BDF2
:103D500000F09AF80020FAE718440258E0A201089F
:103D60009C0000209800002070B50446114800789F
:103D700008B9012070BD0F4800784FF47A71B1FB8B
:103D8000F0F00D490968B1FBF0F5284602F01EFB82
:103D900008B10120EEE7102C07D200222146501E68
:103DA00000F098F80548046001E00120E2E70020F7
:103DB000E0E7000094000020980000209000002020
:103DC0004178154A11600178F9B1121D41681160FE
:103DD000017B0907C27A41EA0261827A41EAC24163
:103DE000427B41EA8241827B41EA4241C27B41EA15
:103DF0000241427A41EA0221027A41EA4201027812
:103E00001143054A0832116005E00021024A121DE3
:103E10001160121D1160704798ED00E000BF00BFF7
:103E200000BFBFF35F8F00BF00BF00BF0548006841
:103E300020F4803003490860002002497031086096
:103E40007047000024ED00E040F001010D4A1160D0
:103E50000C497039096841F480310A4A703A11609E
:103E600000BF00BF00BFBFF34F8F00BF00BF00BF48
:103E700000BF00BF00BFBFF36F8F00BF00BF00BF18
:103E80007047000094ED00E008B500BF06480068E8
:103E900040F00200044908600846006800F0020093
:103EA000009000BF00BF08BDF44402580146084618
:103EB00000280DDB00BF00BF00F01F0301229A4065
:103EC00043099B0003F1E023C3F8002100BF00BFBA
:103ED00000BF70472DE9F05F80460D46164604F09E
:103EE00085FE074639462A46334601F00700C0F1F1
:103EF000070ABAF1040F02D94FF0040A01E0C0F139
:103F0000070AD14600F1040ABAF1070F02D24FF0B6
:103F1000000A01E0A0F1030AD4464FF0010A0AFAB0
:103F200009FAAAF1010A0AEA020A0AFA0CFA4FF09F
:103F3000010B0BFA0CFBABF1010B0BEA030B4AEA8A
:103F40000B042146404604F059FEBDE8F09F0000F6
:103F500000BF00F00702064B19684FF6FF03194037
:103F6000044B0B4343EA0221014B196000BF704729
:103F70000CED00E00000FA0570B504461548006835
:103F8000C0F3800048B91348006800F00700A04261
:103F900001D0012070BD0020FCE70E48006820F031
:103FA000070020430B490860FFF79CFE054607E029
:103FB000FFF798FE401BB0F57A7F01D90120E9E7B1
:103FC000044808380068C0F340300028F0D00020D2
:103FD000E0E700000C48025810B501F033FA05493B
:103FE0000968C1F30211044A515C01F01F01C84085
:103FF00010BD000020440258E0A2010870B501463F
:10400000844D2D6805F00303824D2D68C5F30530FE
:10401000804D2D1D2D68C5F300147E4D14352D687F
:10402000C5F3CC0515FB04F501EE105AB8EE411AA4
:10403000F0EE410A00286FD023B1012B4ED0022BA5
:104040006BD16BE0734D283D2D68C5F340153DB332
:10405000704D283D2D68C5F3C1066F4D25FA06F257
:1040600001EE102AF8EE411A01EE100AB8EE411ADC
:1040700081EE812A9FED691AC0EE811A654D1035D7
:104080002D68C5F3080501EE105AB8EE411A31EE5D
:10409000811AF7EE001A31EE211A22EE010A1CE015
:1040A00001EE100AB8EE411ADFED5D1A81EE812AA9
:1040B0009FED5A1AC0EE811A564D10352D68C5F382
:1040C000080501EE105AB8EE411A31EE811AF7EEEA
:1040D000001A31EE211A22EE010A5BE001EE100A0D
:1040E000B8EE411ADFED4F1A81EE812A9FED4B1A8F
:1040F000C0EE811A474D10352D68C5F3080501EE55
:10410000105AB8EE411A31EE811AF7EE001A31EE6C
:10411000211A22EE010A3DE077E01DE001EE100ACF
:10412000B8EE411A9FED402AC2EE011A9FED3B1AEC
:1041300080EE812A374D10352D68C5F3080501EE54
:10414000105AB8EE411A32EE011AB7EE002A31EEDB
:10415000021A21EE810A1DE001EE100AB8EE411AA2
:10416000DFED301A81EE812A9FED2C1AC0EE811A04
:10417000284D10352D68C5F3080501EE105AB8EE2C
:10418000411A31EE811AF7EE001A31EE211A22EEB1
:10419000010A00BF00BF1F4D10352D68C5F346252D
:1041A00001EE105AB8EE411AF7EE001A31EE211A5C
:1041B000C0EE011ABCEEE11A81ED001A154D103562
:1041C0002D68C5F3064501EE105AB8EE411AF7EE18
:1041D000001A31EE211AC0EE011ABCEEE11A81ED8F
:1041E000011A0C4D10352D68C5F3066501EE105A05
:1041F000B8EE411AF7EE001A31EE211AC0EE011A9C
:10420000BCEEE11A81ED021A03E000250D604D605D
:104210008D6070BD284402580090D0030000004615
:104220000024744C0024744A20BCBE4B70B5014677
:10423000844D2D6805F00303824D2D68C5F30550AC
:10424000804D2D1D2D68C5F300247E4D1C352D6835
:10425000C5F3CC0515FB04F501EE105AB8EE411A72
:10426000F0EE410A00286FD023B1012B4ED0022B73
:104270006BD16BE0734D283D2D68C5F340153DB300
:10428000704D283D2D68C5F3C1066F4D25FA06F225
:1042900001EE102AF8EE411A01EE100AB8EE411AAA
:1042A00081EE812A9FED691AC0EE811A654D18359D
:1042B0002D68C5F3080501EE105AB8EE411A31EE2B
:1042C000811AF7EE001A31EE211A22EE010A1CE0E3
:1042D00001EE100AB8EE411ADFED5D1A81EE812A77
:1042E0009FED5A1AC0EE811A564D18352D68C5F348
:1042F000080501EE105AB8EE411A31EE811AF7EEB8
:10430000001A31EE211A22EE010A5BE001EE100ADA
:10431000B8EE411ADFED4F1A81EE812A9FED4B1A5C
:10432000C0EE811A474D18352D68C5F3080501EE1A
:10433000105AB8EE411A31EE811AF7EE001A31EE3A
:10434000211A22EE010A3DE077E01DE001EE100A9D
:10435000B8EE411A9FED402AC2EE011A9FED3B1ABA
:1043600080EE812A374D18352D68C5F3080501EE1A
:10437000105AB8EE411A32EE011AB7EE002A31EEA9
:10438000021A21EE810A1DE001EE100AB8EE411A70
:10439000DFED301A81EE812A9FED2C1AC0EE811AD2
:1043A000284D18352D68C5F3080501EE105AB8EEF2
:1043B000411A31EE811AF7EE001A31EE211A22EE7F
:1043C000010A00BF00BF1F4D18352D68C5F34625F3
:1043D00001EE105AB8EE411AF7EE001A31EE211A2A
:1043E000C0EE011ABCEEE11A81ED001A154D183528
:1043F0002D68C5F3064501EE105AB8EE411AF7EEE6
:10440000001A31EE211AC0EE011ABCEEE11A81ED5C
:10441000011A0C4D18352D68C5F3066501EE105ACA
:10442000B8EE411AF7EE001A31EE211AC0EE011A69
:10443000BCEEE11A81ED021A03E000250D604D602B
:104440008D6070BD284402580090D00300000046E3
:104450000024744C0024744A20BCBE4B2DE9F0416A
:1044600004460025A8464FF00062D4E90010114030
:104470000020134659404040014331D1606E48B19D
:10448000B0F5801F0DD0B0F5001F11D0B0F5401F62
:1044900016D114E0FE48006840F40030FC49086082
:1044A00010E0022104F1080003F026F8054609E0B7
:1044B000022104F1280003F0D1F8054602E001E0F2
:1044C000012500BF00BF55B9F1482430006820F431
:1044D0004010616E0843EE492431086000E0A846B0
:1044E0004FF48072D4E90010114000201346594067
:1044F000404001432ED1A06D05281BD2DFE800F01B
:10450000030A11181900E248006840F40030E0493D
:10451000086011E0002104F1080002F0EDFF0546FB
:104520000AE0002104F1280003F098F8054603E0B2
:1045300002E001E0012500BF00BF55B9D448243096
:10454000006820F00700A16D0843D14924310860BC
:1045500000E0A8464FF48062D4E90010114000202A
:1045600013465940404001433DD1D4F8A400B0F572
:10457000C00F24D007DC68B1B0F5001F11D0B0F532
:10458000800F1FD114E0B0F5000F19D0B0F5200F47
:1045900018D116E0BE48006840F40030BC490860FD
:1045A00012E0002104F1080002F0A6FF05460BE02E
:1045B000002104F1280003F051F8054604E003E06F
:1045C00002E001E0012500BF00BF5DB9B0482C301A
:1045D000006820F46000D4F8A4100843AC492C31E2
:1045E000086000E0A8464FF40062D4E900011040E2
:1045F000002113465840494008433DD1D4F8A80053
:10460000B0F1407F24D007DC68B1B0F1807F11D0D9
:10461000B0F1007F1FD114E0B0F1806F19D0B0F17C
:10462000A06F18D116E09A48006840F4003098490D
:10463000086012E0002104F1080002F05DFF054669
:104640000BE0002104F1280003F008F8054604E01F
:1046500003E002E001E0012500BF00BF5DB98C4826
:104660002C30006820F0E060D4F8A8100843884996
:104670002C31086000E0A8464FF00073D4E9001028
:104680001940002059404040014328D1E06CA8B1B6
:10469000102804D0202809D0302810D10DE07C4803
:1046A000006840F400307A4908600AE0022104F111
:1046B000080002F021FF054603E002E001E00125C9
:1046C00000BF00BF55B972482030006820F03000AC
:1046D000E16C08436E492031086000E0A8464FF4C1
:1046E0008053D4E900101940002059404040014354
:1046F00037D1E06DB0F5005F1AD004DC50B1B0F5F1
:10470000805F1ED10DE0B0F5405F18D0B0F5804F4E
:1047100017D115E05E48006840F400305C4908603D
:1047200011E0002104F1080002F0E6FE05460AE06F
:10473000002104F1280002F091FF054603E002E0A9
:1047400001E0012500BF00BF55B951482430006881
:1047500020F4E040E16D08434D492431086000E059
:10476000A8464FF40053D4E90010194000205940E6
:104770004040014335D1206EB0F5403F1ED007DCEC
:1047800068B1B0F5803F0BD0B0F5003F19D10EE015
:10479000B0F5802F13D0B0F5A02F12D110E012E0A9
:1047A000012104F1080002F0A7FE05460BE00121FB
:1047B00004F1280002F052FF054604E003E002E0A5
:1047C00001E0012500BF00BF55B931482430006821
:1047D00020F4E020216E08432D492431086000E0D8
:1047E000A8464FF48042D4E900011040002113464E
:1047F00058404940084337D1D4F8AC00B0F1405F8D
:104800001ED007DC68B1B0F1805F0BD0B0F1005F63
:1048100019D10EE0B0F1804F13D0B0F1A04F12D1FA
:1048200010E012E0012104F1080002F065FE0546E7
:104830000BE0012104F1280002F010FF054604E01E
:1048400003E002E001E0012500BF00BF5DB91048B0
:104850002C30006820F0E040D4F8AC1008430C493C
:104860002C31086000E0A8464FF40043D4E9000171
:10487000184000215840494008432AD1E06EB8B1A1
:10488000B0F1805F06D0B0F1005F12D109E0000006
:104890002C440258F948006840F40030F749086099
:1048A00009E0012104F1080002F026FE054602E0BD
:1048B00001E0012500BF00BF55B9F0482430006871
:1048C00020F04050E16E0843EC492431086000E0DC
:1048D000A8464FF08073D4E90010194000205940D9
:1048E0004040014328D1A06CA8B1012804D002287F
:1048F00009D0032810D10DE0E048006840F40030F2
:10490000DE4908600AE0022104F1080002F0F4FD2B
:10491000054603E002E001E0012500BF00BF55B9F4
:10492000D6482030006820F00300A16C0843D3492A
:104930002031086000E0A8464FF48003D4E900105D
:10494000194000205940404001437DD1CC480068C7
:1049500040F48070CA490860FFF7C4F9064606E0D3
:10496000FFF7C0F9801B642801D9032505E0C4487E
:10497000006800F480700028F2D000BF85BBBF48FB
:104980004430006800F44070B4F8B01001F4407195
:10499000884213D0B9484430006820F44077B748C3
:1049A0004430006840F48030B4494431086008461F
:1049B000006820F48030086008460760D4F8B00032
:1049C000B0F5807F15D1FFF78DF9064609E0FFF7B6
:1049D00089F9801B41F28831884202D9032507E01A
:1049E00038E0A64844300068C0F340000028EED00C
:1049F00000BF55BB00BFB4F8B00000F44070B0F584
:104A0000407F0ED19D481C38006820F47C519D4A9F
:104A1000D4F8B000104041EA101098491C390860E1
:104A200007E096481C38006820F47C5093491C39F4
:104A30000860924844300068B4F8B010C1F30B012C
:104A400008438E49443101E005E001E0086002E0DE
:104A5000A84600E0A8460122D4E900011040002148
:104A6000134658404940084330D1A06F18281AD047
:104A700005DC48B1082808D0102817D10CE0202800
:104A800012D0282812D110E012E0012104F1080010
:104A900002F032FD05460BE0012104F1280002F08E
:104AA000DDFD054604E003E002E001E0012500BF72
:104AB00000BF55B971482830006820F03800A16F58
:104AC00008436E492831086000E0A8460223D4E973
:104AD00000101940002059404040014329D1606F27
:104AE000062816D2DFE800F003040B12131412E0BC
:104AF000012104F1080002F0FFFC05460BE0012152
:104B000004F1280002F0AAFD054604E003E002E0FB
:104B100001E0012500BF00BF55B9584828300068A2
:104B200020F00700616F084354492831086000E015
:104B3000A8460422D4E90010114000201346594031
:104B4000404001432BD1D4F89000062816D2DFE86C
:104B500000F003040B12131412E0012104F1080009
:104B600002F0CAFC05460BE0012104F1280002F026
:104B700075FD054604E003E002E001E0012500BF09
:104B800000BF5DB93D482C30006820F00700D4F824
:104B90009010084339492C31086000E0A8462023D2
:104BA000D4E900011840002158404940084337D15A
:104BB000D4F88C00B0F1405F1ED007DC68B1B0F1D2
:104BC000805F0BD0B0F1005F19D10EE0B0F1804FE3
:104BD00013D0B0F1A04F12D110E012E0002104F187
:104BE000080002F089FC05460BE0022104F12800D0
:104BF00002F034FD054604E003E002E001E0012597
:104C000000BF00BF5DB91D482830006820F0E040BB
:104C1000D4F88C10084319492831086000E0A846F0
:104C20004023D4E90010194000205940404001437E
:104C30003CD1D4F89800B0F5406F25D007DC68B1BE
:104C4000B0F5806F0BD0B0F5006F20D10EE0B0F55D
:104C5000805F1AD0B0F5A05F19D117E019E00021EC
:104C600004F1080002F048FC054612E0022104F1BC
:104C7000280002F0F3FC05460BE000002C4402582B
:104C800000480258FFFCFF0F03E002E001E00125AD
:104C900000BF00BF4DB9FE48006820F4E050D4F8D2
:104CA00098100843FA49086000E0A8468023D4E938
:104CB00000101940002059404040014335D1D4F83C
:104CC0009C00B0F5C04F1ED007DC68B1B0F5005FA6
:104CD0000BD0B0F5804F19D10EE0B0F5004F13D0D6
:104CE000B0F5204F12D110E012E0002104F10800CD
:104CF00002F002FC05460BE0022104F1280002F05C
:104D0000ADFC054604E003E002E001E0012500BF40
:104D100000BF4DB9DE48006820F46040D4F89C1014
:104D20000843DB49086000E0A8460823D4E90001F5
:104D30001840002158404940084317D1D4F880005A
:104D4000B0F5805F07D1022104F1280002F086FC53
:104D500008B14FF00108CE48001F006820F4405011
:104D6000D4F880100843CA49091F08601023D4E909
:104D700000011840002158404940084315D1D4F89B
:104D80009400B0F5807F07D1022104F1280002F0E1
:104D900065FC08B14FF00108BD48006820F4407080
:104DA000D4F894100843BA4908604FF40023D4E9BA
:104DB00000011840002158404940084327D1D4F849
:104DC000A00030B1B0F5803F0AD0B0F5003F0FD160
:104DD0000DE0002104F1080002F08EFB054609E019
:104DE000022104F1280002F039FC054602E001E04E
:104DF000012500BF00BF4DB9A548006820F4403030
:104E0000D4F8A0100843A249086000E0A8464FF477
:104E10008023D4E90001184000215840494008434C
:104E20002DD1D4F88400B0F5801F06D0B0F5001F56
:104E30000CD0B0F5401F11D10FE095482C38006818
:104E400040F4003092492C39086009E0012104F156
:104E5000280002F003FC054602E001E0012500BF46
:104E600000BF5DB98A48001F006820F44010D4F8E4
:104E7000841008438649091F086000E0A8464FF4E3
:104E80008032D4E9000110400021134658404940C7
:104E9000084325D1206D18B1B0F5803F10D108E04E
:104EA0007B482C38006840F4003079492C39086080
:104EB00008E0022104F1080002F01EFB054601E0B3
:104EC000012500BF00BF55B971480C38006820F4B7
:104ED0008030216D08436E490C39086000E0A84617
:104EE0004FF00053D4E900101940002059404040D1
:104EF000014307D1022104F1280002F0AFFB08B101
:104F00004FF001084FF40032D4E9000110400021B5
:104F1000134658404940084327D1E06FA0B1B0F58F
:104F2000807F06D0B0F5007F0CD0B0F5407F0CD16B
:104F300009E057482C38006840F4003054492C39B7
:104F4000086004E003E002E001E0012500BF00BFCB
:104F500055B94F48001F006820F44070E16F0843C6
:104F60004B49091F086000E0A8464FF48012D4E9BD
:104F7000001011400020134659404040014309D120
:104F800043480838006820F00040216F084340493A
:104F9000083908604FF40013D4E9000118400021DB
:104FA00058404940084309D139480838006820F082
:104FB0008070A16E08433649083908604FF080437D
:104FC000D4E900101940002059404040014311D15C
:104FD00000BF2F484838006820F400402C49483969
:104FE000086008460068D4F8B410084328494839D6
:104FF000086000BF4FF00042D4E9000110400021DA
:10500000134658404940084309D121480C380068EC
:1050100020F04050616D08431D490C3908604FF481
:105020000002D4E9001011400020134659404040CE
:1050300001430AD11648001F006820F44000D4F84C
:10504000881008431249091F086001220021606886
:10505000104049405040014306D104F1080002F0DD
:105060004BFA054605B1A8460222002160681040AF
:1050700049405040014307D1012104F1080002F0EA
:105080003BFA054605B1A84604230020616801E00B
:10509000584402581940042240405140084307D167
:1050A000022104F1080002F027FA054605B1A846DE
:1050B00008230020616819400822404051400843FD
:1050C00007D1002104F1280002F0C8FA054605B115
:1050D000A84610230020616819401022404051402A
:1050E000084307D1012104F1280002F0B7FA054670
:1050F00005B1A84620220021606810404940504078
:10510000014307D1022104F1280002F0A7FA054665
:1051100005B1A846B8F1000F02D10020BDE8F0812A
:105120000120FBE72DE9F04104460D4614B90120AA
:10513000BDE8F081BD48006800F00F00A8420ED223
:10514000BA48006820F00F002843B84908600846B4
:10515000006800F00F00A84201D00120E8E72078A5
:1051600000F0040004280ED1B1492069096801F05B
:105170007001884207D9AE48006820F070002169AC
:105180000843AB490860207800F00800082811D1D6
:10519000A749091D6069096801F07001884209D9B1
:1051A000A348001D006820F0700061690843A04911
:1051B000091D0860207800F01000102811D19C49CA
:1051C000091DA069096801F4E061884209D998487D
:1051D000001D006820F4E060A16908439449091D9E
:1051E0000860207800F02000202811D19049083173
:1051F000E069096801F07001884209D98C480830DB
:10520000006820F07000E1690843894908310860AE
:10521000207800F0020002280ED18549E068096874
:1052200001F00F01884207D98148006820F00F0083
:10523000E16808437E490860207800F001000028FA
:1052400050D07B48006820F47060A168084378491A
:1052500008606068022807D1754818380068C0F3F4
:105260004040F8B9012063E76068032807D170481F
:1052700018380068C0F34060A0B9012058E76068A2
:10528000012807D16A4818380068C0F3002048B9DF
:1052900001204DE7664818380068C0F3800008B95F
:1052A000012045E762480838006820F0070061687F
:1052B00008435F4908390860FEF714FD064608E018
:1052C000FEF710FD801B41F28831884201D903208E
:1052D0002EE757480838006800F038006168B0EBE6
:1052E000C10FEDD1207800F0020002280ED1504904
:1052F000E068096801F00F01884207D24C48006855
:1053000020F00F00E16808434949086047480068F9
:1053100000F00F00A8420ED94448006820F00F00AA
:105320002843424908600846006800F00F00A84280
:1053300001D00120FCE6207800F0040004280ED102
:105340003B492069096801F07001884207D238485A
:10535000006820F070002169084335490860207812
:1053600000F00800082811D13149091D6069096859
:1053700001F07001884209D22D48001D006820F01C
:105380007000616908432A49091D0860207800F00F
:105390001000102811D12649091DA069096801F4DF
:1053A000E061884209D22248001D006820F4E060D4
:1053B000A16908431E49091D0860207800F02000FB
:1053C000202811D11A490831E069096801F07001FB
:1053D000884209D216480830006820F07000E16960
:1053E000084313490831086000F076F8104909684D
:1053F000C1F303210F4A515C01F01F0120FA01F7AC
:105400000B48006800F00F001146085C00F01F0018
:1054100027FA00F008490860084807600848006853
:10542000FEF7A2FC8046404682E6000000200052C3
:1054300018440258E0A201089C00002098000020B7
:105440009000002010B500F047F80D490968C1F33D
:1054500003210C4A515C01F01F0120FA01F40848B5
:10546000006800F00F001146085C00F01F0024FAED
:1054700000F005490860054804600846006810BD52
:1054800018440258E0A201089C0000209800002067
:1054900000B5FFF7D7FF05490968C1F30211044AB7
:1054A000515C01F01F01C84000BD00001C440258BF
:1054B000E0A2010800B5FFF7C5FF05490968C1F37F
:1054C0000221044A515C01F01F01C84000BD0000E8
:1054D0001C440258E0A20108F0B5824E366806F07E
:1054E000380636B1082E15D0102E15D0182E7DD1C5
:1054F00014E07C4E103E3668C6F3401646B1794E35
:10550000103E3668C6F3C107774E26FA07F000E072
:105510007548E5E07548E3E07548E1E0714E1836FE
:10552000366806F003046F4E18363668C6F3051168
:105530006C4E1C36366806F001056A4E2436366815
:10554000C6F3CC0616FB05F601EE106AB8EE410A6A
:10555000002971D024B1012C50D0022C6DD16DE006
:10556000604E103E3668C6F340163EB35D4E103EA8
:105570003668C6F3C1075C4E26FA07F301EE103A0F
:10558000F8EE411A01EE101AB8EE411A81EE812AA6
:105590009FED581AC0EE011A524E20363668C6F3F7
:1055A000080601EE106AB8EE411A31EE811AF7EEE4
:1055B000001A31EE211A62EE010A1EE001EE101A05
:1055C000B8EE411ADFED4C1A81EE812A9FED491A9F
:1055D000C0EE011A434E20363668C6F3080601EEC7
:1055E000106AB8EE411A31EE811A00E076E0F7EE6B
:1055F000001A31EE211A62EE010A5BE001EE101A88
:10560000B8EE411A9FED3D2AC2EE011A9FED391AFC
:1056100080EE012A334E20363668C6F3080601EEC6
:10562000106AB8EE411A32EE011AB7EE002A31EED6
:10563000021A61EE810A3DE04EE01DE001EE101A13
:10564000B8EE411ADFED2E1A81EE812A9FED291A5C
:10565000C0EE011A234E20363668C6F3080601EE66
:10566000106AB8EE411A31EE811AF7EE001A31EEE7
:10567000211A62EE010A1DE001EE101AB8EE411A7D
:105680009FED1E2AC2EE011A9FED1A1A80EE012A22
:10569000144E20363668C6F3080601EE106AB8EEDE
:1056A000411A32EE011AB7EE002A31EE021A61EE0B
:1056B000810A00BF00BF0B4E20363668C6F346266F
:1056C000721C01EE102AB8EE411AC0EE811ABCEE2F
:1056D000E11A11EE100A00E0002001E0034800BFCB
:1056E00000BFF0BD104402580090D00300093D00F7
:1056F00040787D01000000460024744C0024744A68
:1057000020BCBE4B2DE9F047044614B90120BDE88A
:10571000F087207800F00100002870D0F948006878
:1057200000F03808F7481830D0F80090B8F1100FA2
:1057300006D0B8F1180F0FD109F0030002280BD1E1
:10574000F04810380068C0F3404000286AD0606814
:10575000002867D10120DAE700BF6068B0F5803F1C
:1057600008D1E8481038006840F48030E549103925
:1057700008602EE0606868B9E2481038006820F4DC
:105780008030E049103908600846006820F4802025
:1057900008601EE06068B0F5A02F0DD1D948103820
:1057A000006840F48020D749103908600846006836
:1057B00040F4803008600CE0D2481038006820F4D3
:1057C0008030D049103908600846006820F48020F5
:1057D000086000BF606898B1FEF784FA054606E0ED
:1057E000FEF780FA401B642801D903208FE7C548E3
:1057F00010380068C0F340400028F1D012E012E0F9
:10580000FEF770FA054606E0FEF76CFA401B6428C6
:1058100001D903207BE7BB4810380068C0F3404043
:105820000028F1D100BF207800F00200022879D1D1
:10583000B448006800F03808B2481830D0F800903A
:10584000B8F1000F05D0B8F1180F35D109F00300F9
:1058500088BBAC4810380068C0F3800018B1E0681D
:1058600008B9012053E7A7481038006820F0190054
:10587000E1680843A34910390860FEF733FA05468A
:1058800006E0FEF72FFA401B022801D903203EE76D
:105890009C4810380068C0F380000028F1D0994877
:1058A0000C38006820F0FE40217C40EA01609549F8
:1058B0000C39086045E0FFE7E06838B391481038DC
:1058C000006820F01900E16808438E49103908602B
:1058D000FEF708FA054606E0FEF704FA401B022828
:1058E00001D9032013E7874810380068C0F380000F
:1058F0000028F1D083480C38006820F0FE40217C5D
:1059000040EA01607F490C3908601AE07D48103890
:10591000006820F001007B4910390860FEF7E2F9C9
:10592000054607E00EE0FEF7DDF9401B022801D92D
:105930000320ECE6734810380068C0F380000028AC
:10594000F1D100BF207800F0100010286FD16D4811
:10595000006800F038086B481830D0F80090B8F1B3
:10596000080F06D0B8F1180F1CD109F00300012868
:1059700018D1644810380068C0F3002020B1E069F5
:10598000802801D00120C2E600BF5E48001F0068E9
:1059900020F07C5094F8201040EA01605949091F1A
:1059A000086043E0E06938B356481038006840F0BA
:1059B0008000544910390860FEF794F9054606E066
:1059C000FEF790F9401B022801D903209FE64D48BD
:1059D00010380068C0F300200028F1D000BF49480B
:1059E000001F006820F07C5094F8201040EA01600D
:1059F0004449091F086019E042481038006820F047
:105A00008000404910390860FEF76CF9054606E051
:105A1000FEF768F9401B022801D9032077E63948D0
:105A200010380068C0F300200028F1D100BF2078B2
:105A300000F00800082836D16069D0B131486430E0
:105A4000006840F001002F4964310860FEF74AF910
:105A5000054606E0FEF746F9401B022801D903205F
:105A600055E6284864300068C0F340000028F1D0B3
:105A700019E024486430006820F0010021496431B5
:105A80000860FEF72FF9054606E0FEF72BF9401BEC
:105A9000022801D903203AE61A4864300068C0F3AE
:105AA00040000028F1D1207800F02000202838D1D3
:105AB000A069D0B113481038006840F480501149F3
:105AC00010390860FEF70EF9054606E0FEF70AF900
:105AD000401B022801D9032019E60A481038006843
